:100000000C942A000C9447000C9447000C94470071
:100010000C948F020C9447000C9447000C944700FA
:100020000C9447000C9447000C9447000C94470034
:100030000C9447000C9447000C9447000C94470024
:100040000C9447000C9447000C94EC020C9447006D
:100050000C94470011241FBECFE5D4E0DEBFCDBF16
:1000600010E0A0E6B0E0EEE5F3E102C005900D92ED
:10007000AA37B107D9F711E0AAE7B0E001C01D9295
:10008000A739B107E1F70E9449000C94AD090C941F
:1000900000001F93DF93CF930F92CDB7DEB7CE0151
:1000A00001960E9473060E94060685B78F74806AC7
:1000B00085BF789411E0F8948981882361F085B731
:1000C000806485BF7894889585B78F7B85BFF894C9
:1000D00089818823A1F7198378940E940606EBCFC3
:1000E000982F92959F708295807F892B0895929882
:1000F000939894989598982F84FD929A95FD939A49
:1001000096FD949A87FF0895959A08951F93182F46
:10011000919A0E947700000091980000812F8295AB
:100120008F70919A1295107F812B0E9477000000AA
:1001300091988AE68A95F1F71F91089590980E9408
:100140008600089580680E949E008AE68A95F1F7ED
:100150000895909A0E9486000895877088600E9492
:100160009E008AE68A95F1F7089581E00E949E003C
:1001700080ED9CE00197F1F7089582E00E949E00D7
:1001800080ED9CE00197F1F70895837084600E94F0
:100190009E008AE68A95F1F70895DF92EF92FF922A
:1001A0000F931F93CF93DF937C018B0116161706D5
:1001B0008CF4C0E0D0E08AE6D82EF701EC0FFD1FEA
:1001C00080810E94A9008D2D8A95F1F72196C01794
:1001D000D1079CF3DF91CF911F910F91FF90EF908A
:1001E000DF9008951F93899A889A8A9A8B9A8C9A9D
:1001F0008D9A9098919820E931E048EC50E068ECB5
:1002000070E0CA010197F1F721503040C1F7919A8F
:10021000929A939A94989598000000000000919803
:1002200088E090E20197F1F7919A00000000000049
:100230009198CB010197F1F7919A0000000000001E
:100240009198CB010197F1F7919A929800000000E4
:10025000000091981AE6812F8A95F1F788E20E94B2
:100260009E001A95F1F71F91089580918800909152
:1002700089000895909389008093880008958BB732
:100280008F7D8BBF60E070E0A0E0B0E020E030E068
:1002900089B390E0022E02C0959587950A94E2F703
:1002A00080FD03C06F5F7F4FD9012F5F3F4F243028
:1002B000310571F78FE08ABB80EF8BBB000040E017
:1002C00050E0E0E0F0E089B390E0022E02C09595A6
:1002D00087950A94E2F780FD04C04F5F5F4FF901F4
:1002E00034972F5F3F4F2830310569F780EF8ABB85
:1002F0008FE08BBB00008AB780628ABF8BB78062B9
:100300008BBF6130710521F02FEF3FEFC9010895D8
:1003100041305105C9F79D01220F331F220F331FB2
:100320002E0F3F1FF3CF80EF8ABB8FE08BBB85B7CB
:1003300084B78F7B84BF8BB780628BBF8AB78062A4
:100340008ABF85E085BD89B7806489BF10927C0033
:1003500010927F0010927E00109283001092820013
:1003600010927D0010928100109280001092850002
:10037000109284008FEF9FEF909387008093860008
:10038000089590937B0080937A000895CF93DF9334
:100390000E943F01EC0180917C008130C9F08230E5
:1003A00049F0833039F18430A1F18530C1F1DF911A
:1003B000CF910895D7FD07C0809186009091870066
:1003C000C817D907D1F110927C00DF91CF91089521
:1003D000D7FDF9CFD0938700C093860082E0809349
:1003E0007C0081E090E09093830080938200DF9115
:1003F000CF910895CF5FDF4F09F45CC080937C00FC
:1004000081E090E09093830080938200DF91CF9110
:1004100008958FEFCF3FD807B1F183E0EFCFE091A0
:100420007A00F0917B008EEF9FEF099510927C008F
:1004300085B78F74806A85BFBACFE0917A00F0915A
:100440007B00CE01099581E090E00090860002C01B
:10045000880F991F0A94E2F7209188003091890053
:1004600082239323892BC9F286E080937D0010922A
:1004700081001092800084E690E090938500809344
:10048000840083E0BBCFE0917A00F0917B008FEF96
:100490009FEF0995D0938700C093860010927D004E
:1004A00085E080937C0088EC90E0909383008093BB
:1004B00082007DCF84E080937C0081E090E0909387
:1004C00083008093820073CF0E943F019C01809142
:1004D0008600909187002817390719F010927D0047
:1004E000089580917D00863051F487E080937D00EF
:1004F00081E090E090938500809384000895E091DE
:100500007A00F0917B00C901099586E080937D0017
:1005100084E690E0909385008093840008951F9274
:100520000F920FB60F9211242F933F934F935F9327
:100530006F937F938F939F93AF93BF93EF93FF93AB
:1005400080917C00882349F180917E0090917F000A
:10055000019690937F0080937E00209180003091DF
:1005600081002F5F3F4F30938100209380002091C6
:100570008200309183008217930704F580917D00FB
:10058000882359F02091800030918100809184006F
:100590009091850028173907C4F4FF91EF91BF911E
:1005A000AF919F918F917F916F915F914F913F910B
:1005B0002F910F900FBE0F901F9018950E94C601AB
:1005C00010927F0010927E00D9CF0E946402109298
:1005D000810010928000E1CF1F920F920FB60F9210
:1005E00011248F939F9380917C00882361F0853044
:1005F00051F08AB780628ABF9F918F910F900FBE92
:100600000F901F90189585B78F7485BF81E08093F8
:100610007C0010927F0010927E0081E090E0909329
:10062000830080938200E5CF40918A0150918B0135
:1006300014161506BCF44150504050938B01409362
:100640008A0180918C0190918D01DC01A65FBE4FE3
:10065000FA01E657FF4F20812C93019690938D016C
:1006600080938C0180918E0190918F0148175907DA
:1006700024F450938F0140938E01E0919501F09105
:10068000960110820895E0918C01F0918D011E1663
:100690001F064CF53197F0938D01E0938C0120916A
:1006A0008A0130918B01D901A657BF4FE65FFE4FFB
:1006B00080818C932F5F3F4F30938B0120938A0171
:1006C000D901139780918E0190918F018A179B0712
:1006D00024F4B0938F01A0938E01E0919501F091E5
:1006E00096011082089520918A0130918B01E8CF04
:1006F00080918E0190918F0185309105A4F480E066
:1007000090E090938F0180938E010E9414030E94C9
:1007100014030E9414030E941403E0919501F091C8
:100720009601108208950497ECCF40918E0150916C
:100730008F014C5F5F4F80918C0190918D012091D2
:100740008A0130918B01820F931F4817590724F4B7
:1007500050938F0140938E010E9443030E944303F4
:100760000E9443030E944303E0919501F09196019A
:100770001082089520918A0130918B011216130680
:100780003CF4C901019790938B0180938A019C01ED
:1007900080918E0190918F01281739074CF42230F7
:1007A000310564F0C901029790938F0180938E0107
:1007B000E0919501F09196011082089580E090E01B
:1007C000F3CF80919401813009F008951092940143
:1007D000E0919501F091960110820895CF92DF92F9
:1007E000EF92FF920F931F93CF93DF939C017B01B6
:1007F0006A01809194018330F1F0C0E0D0E089017A
:10080000000F111FCE01800F911F0E94CE08F7012B
:1008100080830F5F1F4FCE01800F911F0E94CE0873
:10082000F6018083DF91CF911F910F91FF90EF90A0
:10083000DF90CF900895C0E2D0E0E1CF282F8091E3
:1008400094018823B1F08091930190E0820F911D73
:1008500088599F4F0E94CE08E0918C01F0918D0144
:10086000E75FFE4F8083E0919501F0919601108241
:1008700008958091930190E0820F911D805C9F4FBD
:100880000E94CE08E9CFDF93CF9300D0CDB7DEB77B
:100890009C0119821A8297FD39C081E090E0022EF6
:1008A00002C0880F991F0A94E2F787779772892B05
:1008B000A9F42330310509F44AC02C30310509F47C
:1008C0004FC02F5F3F4FD9F11092900120E030E0F0
:1008D000C9010F900F90CF91DF9108958091910100
:1008E000909192012817390709F441C08091940131
:1008F0008130B9F0109290010E94430320E030E073
:10090000C9010F900F90CF91DF9108958FEF2E3F87
:10091000380799F6109290010E94430321E030E0DD
:10092000D7CF10929401E0919501F0919601108239
:10093000109290010E94430320E030E0E1CF21E0DB
:1009400030E0C9010F900F90CF91DF9108950E9480
:1009500043030E94BA031092900121E030E0B8CF27
:100960000E9443031092900120E030E0B1CFC90112
:10097000BE016F5F7F4FAE014E5F5F4F0E94EE037F
:100980008091930190E06A81019670E00E94A60632
:100990008093930189810E941E0421E030E098CF6A
:1009A000282F809194018823E9F08091930190E0B1
:1009B000820F911D88599F4F0E94CE08282F809149
:1009C0008C0190918D01FC01E65FFE4F2083019622
:1009D00090938D0180938C01E0919501F0919601A7
:1009E000108208958091930190E0820F911D805CA8
:1009F0009F4F0E94CE08282FE2CF0F931F93DF93C3
:100A0000CF9300D0CDB7DEB78C0119821A8297FD43
:100A100044C081E090E0002E02C0880F991F0A9424
:100A2000E2F787779772892BA9F40330110509F44F
:100A300050C00C30110589F58091940190E0019629
:100A40008370907080939401E0919501F0919601EC
:100A500010822FC0C801BE016F5F7F4FAE014E5F95
:100A60005F4F0E94EE031093920100939101109248
:100A7000930180918C0190918D0120918A01309198
:100A80008B01820F931F80389105E4F08A818130B9
:100A9000E9F081E0809390010CC00F301105B1F0B6
:100AA0000E301105C9F007301105E1F00B301105CA
:100AB000B1F081E090E00F900F90CF91DF911F9106
:100AC0000F91089589810E94D004E0CF0E944303D2
:100AD000F0CF0E94BA03EDCF0E941403EACF0E9428
:100AE0009503E7CF0E947803E4CFCF93DF93EC0127
:100AF00081E002C0882359F490919001913051F027
:100B00009923C1F7CE010E94FD048823A9F3DF9148
:100B1000CF910895CE010E944304ECCF0F931F9311
:100B2000DF93CF93CDB7DEB728970FB6F894DEBF2B
:100B30000FBECDBF20918A0130918B018DB79EB73A
:100B400008970FB6F8949EBF0FBE8DBFEDB7FEB7E6
:100B500031968E010F5F1F4FADB7BEB712961C9333
:100B60000E93119780E690E0938382832F5F3F4F2F
:100B7000358324832150304080918C01820F8683FD
:100B800017820E94CD068DB79EB708960FB6F894CF
:100B90009EBF0FBE8DBF80E40E94A200C80167E027
:100BA00070E00E94CD008EE40E94A200809194012A
:100BB0008130F1F0813088F48AE690E062E070E004
:100BC0000E94CD0028960FB6F894DEBF0FBECDBFB1
:100BD000CF91DF911F910F910895823081F0833082
:100BE00089F783E790E062E070E00E94CD00EACFF1
:100BF0008DE690E062E070E00E94CD00E3CF80E7F8
:100C000090E062E070E00E94CD00DCCFEF92FF92B6
:100C10000F931F93CF93DF93C0918A01D0918B01E3
:100C200080918E0190918F01C81BD90BC530D105E1
:100C300014F0C4E0D0E004E010E00C1B1D0B809128
:100C40008C0190918D01801791070CF48C0190E13B
:100C5000E92EF12CEC1AFD0AE01AF10A80919001BC
:100C60008130E9F186E00E94AD0080E00E94A200A0
:100C700080918E0190918F0186579F4FBE010E94F7
:100C8000CD00101611069CF4C0E0D0E080918C01DC
:100C900090918D0101978C1B9D0B865F9E4F61E0AB
:100CA00070E00E94CD002196C017D1077CF31E147E
:100CB0001F0464F4C0E0D0E086E790E061E070E0FB
:100CC0000E94CD002196CE15DF05B4F30E948E055B
:100CD000DF91CF911F910F91FF90EF90089587E0E2
:100CE0000E94AD00C2CFFC01109290018FEF9FEFE8
:100CF0009093920180939101F0939601E093950176
:100D000010821092940110928D0110928C01109219
:100D10008B0110928A0110928F0110928E010E9415
:100D2000F20087E00E94AD000E94B5000E94BD0065
:100D300082E00E94C5000E94930188E090E00E943A
:100D40003A0185E795E00E94C101089597FB092EBD
:100D500007260AD077FD04D00CD006D000201AF464
:100D6000709561957F4F0895F6F7909581959F4F07
:100D70000895AA1BBB1B51E107C0AA1FBB1FA617E2
:100D8000B70710F0A61BB70B881F991F5A95A9F734
:100D900080959095BC01CD010895AEE0B0E0E3ED03
:100DA000F6E00C9484090D891E8986E08C831A83F1
:100DB00009838FEF9FE79E838D839E01275E3F4FC0
:100DC000CE0101966F89788DA9010E94F1062F81CD
:100DD0003885020F131FF80110822E96E4E00C9460
:100DE000A009ABE0B0E0E7EFF6E00C9476093C0137
:100DF0002B015A01FC0117821682838181FD03C0F9
:100E00006FEF7FEFC6C19AE0892E1E010894211C66
:100E1000311CF3012381F20123FD859123FF819190
:100E20002F01882309F4B2C1853239F423FD85915D
:100E300023FF81912F01853229F490E0B3010E94B4
:100E4000EC08E7CF982FFF24EE249924FFE1FF154B
:100E5000D0F09B3269F09C3228F4903259F09332F2
:100E600091F40EC09D3249F0903369F441E024C002
:100E700052E0F52A84E0F82A28C098E0F92A25C033
:100E8000E0E1FE2A22C0F7FC29C0892F80538A3076
:100E900070F4F6FE05C0989C902C1124980E15C095
:100EA000E89CE02C1124E80EF0E2FF2A0EC09E32EE
:100EB00029F4F6FC6BC140E4F42A07C09C3619F40F
:100EC00050E8F52A02C0983649F4F20123FD9591C5
:100ED00023FF91912F01992309F0B8CF892F8554D1
:100EE000833018F08052833038F444E050E0A40E90
:100EF000B51E5FE359830FC0933631F0933779F015
:100F0000933509F056C020C0F5018081898342E005
:100F100050E0A40EB51E610101E010E012C0F50121
:100F2000C080D180F6FC03C06FEF7FEF02C0692D57
:100F300070E042E050E0A40EB51EC6010E94E10838
:100F40008C015FE7F52214C0F501C080D180F6FC6A
:100F500003C06FEF7FEF02C0692D70E042E050E008
:100F6000A40EB51EC6010E94D6088C0150E8F52AD1
:100F7000F3FE07C01AC080E290E0B3010E94EC08C3
:100F8000EA948E2D90E008171907A8F30EC0F60119
:100F9000F7FC8591F7FE81916F0190E0B3010E940B
:100FA000EC08E110EA94015010400115110579F7A1
:100FB000EAC0943611F0993669F5F7FE08C0F501DC
:100FC000208131814281538184E090E00AC0F501A3
:100FD000808191819C01442737FD4095542F82E008
:100FE00090E0A80EB91E9FE6F92257FF09C0509560
:100FF0004095309521953F4F4F4F5F4FE0E8FE2AD7
:10100000CA01B901A1012AE030E00E941809D82ED6
:10101000D21840C0953729F41F2D1F7E2AE030E0FA
:101020001DC01F2D197F9F3661F0903720F4983531
:1010300009F0ACC00FC0903739F0983709F0A6C05E
:1010400004C028E030E00AC0106114FD146020E103
:1010500030E004C014FD166020E132E017FF08C044
:10106000F501608171818281938144E050E008C084
:10107000F50180819181BC0180E090E042E050E088
:10108000A40EB51EA1010E941809D82ED2188FE710
:10109000F82EF122F6FE0BC05EEFF522D91438F4DB
:1010A000F4FE07C0F2FC05C08FEEF82202C01D2D31
:1010B00001C0192DF4FE0DC0FE01ED0DF11D808162
:1010C000803319F499EEF92208C01F5FF2FE05C0C3
:1010D00003C08F2D867809F01F5F0F2DF3FC14C01D
:1010E000F0FE0FC01E1510F09D2C0BC09D2C9E0C09
:1010F000911A1E2D06C080E290E0B3010E94EC0818
:101100001F5F1E15C0F304C01E1510F4E11A01C0C4
:10111000EE2404FF0FC080E390E0B3010E94EC08CE
:1011200002FF1DC001FD03C088E790E00EC088E506
:1011300090E00BC0802F867891F001FF02C08BE217
:1011400001C080E2F7FC8DE290E0B3010E94EC0860
:1011500006C080E390E0B3010E94EC089A94D91491
:10116000C0F3DA94F101ED0DF11D808190E0B3013F
:101170000E94EC08DD20A9F706C080E290E0B301F0
:101180000E94EC08EA94EE20C1F743CEF301668199
:101190007781CB012B96E2E10C949209E199FECF85
:1011A0009FBB8EBBE09A99278DB30895FC010590F3
:1011B000615070400110D8F7809590958E0F9F1F59
:1011C0000895FC016150704001900110D8F780959E
:1011D00090958E0F9F1F08950F931F93CF93DF93CA
:1011E0008C01EB018B8181FF1BC082FF0DC02E8122
:1011F0003F818C819D812817390764F4E881F9814A
:101200000193F983E88306C0E885F985802F099565
:10121000892B31F48E819F8101969F838E8302C03A
:101220000FEF1FEFC801DF91CF911F910F9108952C
:10123000FA01AA27283051F1203181F1E8946F9307
:101240006E7F6E5F7F4F8F4F9F4FAF4FB1E03ED0AD
:10125000B4E03CD0670F781F891F9A1FA11D680F4B
:10126000791F8A1F911DA11D6A0F711D811D911D7E
:10127000A11D20D009F468943F912AE0269F1124F3
:101280003019305D3193DEF6CF010895462F477057
:10129000405D4193B3E00FD0C9F7F6CF462F4F70B2
:1012A000405D4A3318F0495D31FD4052419302D010
:1012B000A9F7EACFB4E0A6959795879577956795B6
:1012C000BA95C9F700976105710508959B01AC01B6
:1012D0000A2E06945795479537952795BA95C9F7DD
:1012E000620F731F841F951FA01D08952F923F92B8
:1012F0004F925F926F927F928F929F92AF92BF9226
:10130000CF92DF92EF92FF920F931F93CF93DF93D1
:10131000CDB7DEB7CA1BDB0B0FB6F894DEBF0FBE2E
:10132000CDBF09942A88398848885F846E847D847B
:101330008C849B84AA84B984C884DF80EE80FD807D
:101340000C811B81AA81B981CE0FD11D0FB6F894F3
:0E135000DEBF0FBECDBFED010895F894FFCFB4
:10135E0025642F2564202020200061620041620058
:0A136E00414200313200200004006B
:00000001FF
