:020000020000FC
:1000000010C0189518951895189518951895189565
:100010001895189518951895189518951895189578
:1000200018950FE50DBF04E00EBF0E946E0008E2B8
:100030004FD025D00FE04CD022D001E049D01FD0C6
:1000400003E046D01CD006E043D019D00EEF05D017
:100050000000000000000000FBCF0AD00F93012F2A
:1000600040E01413FADF0F91005D35D008D00895F9
:1000700010E00A3018F00A501395FBCF08952F9323
:100080003F9322E030E05BD03F912F91089592980A
:1000900093989498959804FD929A05FD939A06FD7D
:1000A000949A07FD959A0895919AF1DF0000000057
:1000B000000091980000000000000295919AE7DF8F
:1000C0000000000000009198029521E031E00895C1
:1000D0009098EADF0895909AE7DF0895899A889AC0
:1000E0008A9A8B9A8C9A8D9A9098919824E630E00F
:1000F00026D0919A929A939A94989598000000002D
:10010000000091982AE030E01AD0919A0000000097
:100110000000919821E030E012D0919A0000000098
:100120000000919821E030E00AD0919A9298000066
:1001300000000000919821E030E001D008954F9335
:100140005F932150304048F04EEC57E04150504012
:10015000E8F7000021503040B8F74F915F910895C3
:00000001FF
