:100000000C942A000C9434000C9434000C943400AA
:100010000C9434000C9434000C9434000C94340090
:100020000C9434000C9434000C9434000C94340080
:100030000C9434000C9434000C9434000C94340070
:100040000C9434000C9434000C9434000C94340060
:100050000C94340011241FBECFE5D4E0DEBFCDBF29
:100060000E94A5000C94BD000C940000982F92955E
:100070009F708295807F892B089592989398949889
:100080009598982F84FD929A95FD939A96FD949A4F
:1000900087FF0895959A08951F93182F919A0E94AB
:1000A0003D0000009198812F82958F709198129554
:1000B000107F812B0E943D000000919820E931E0E3
:1000C00048EC50E0CA010197F1F721503040D1F7D8
:1000D0001F91089590980E944C000895909A0E9454
:1000E0004C000895889A899A8A9A8B9A8C9A8D9A4C
:1000F0009098919820E931E048EC50E068EC70E08D
:10010000CA010197F1F721503040C1F7919A929AB4
:10011000939A949895980000919880E197E20197BE
:10012000F1F7919A00009198CB010197F1F7919A1C
:1001300000009198CB010197F1F7919A92980000F5
:1001400091988AE68A95F1F708950E94720080EAF4
:100150009FE00197F1F724EF31E048EC50E0CA014D
:100160000197F1F721503040D1F788E20E946A00F0
:0E01700080EA9FE00197F1F7FFCFF894FFCFF0
:00000001FF
